{
    "_format": "hh-sol-artifact-1",
    "contractName": "AuraClaimZap",
    "sourceName": "contracts/peripheral/AuraClaimZap.sol",
    "abi": [
        {
            "inputs": [
                {
                    "internalType": "address",
                    "name": "_crv",
                    "type": "address"
                },
                {
                    "internalType": "address",
                    "name": "_cvx",
                    "type": "address"
                },
                {
                    "internalType": "address",
                    "name": "_cvxCrv",
                    "type": "address"
                },
                {
                    "internalType": "address",
                    "name": "_crvDepositWrapper",
                    "type": "address"
                },
                {
                    "internalType": "address",
                    "name": "_cvxCrvRewards",
                    "type": "address"
                },
                {
                    "internalType": "address",
                    "name": "_locker",
                    "type": "address"
                }
            ],
            "stateMutability": "nonpayable",
            "type": "constructor"
        },
        {
            "inputs": [
                {
                    "internalType": "address[]",
                    "name": "rewardContracts",
                    "type": "address[]"
                },
                {
                    "internalType": "address[]",
                    "name": "extraRewardContracts",
                    "type": "address[]"
                },
                {
                    "internalType": "address[]",
                    "name": "tokenRewardContracts",
                    "type": "address[]"
                },
                {
                    "internalType": "address[]",
                    "name": "tokenRewardTokens",
                    "type": "address[]"
                },
                {
                    "internalType": "uint256",
                    "name": "depositCrvMaxAmount",
                    "type": "uint256"
                },
                {
                    "internalType": "uint256",
                    "name": "minAmountOut",
                    "type": "uint256"
                },
                {
                    "internalType": "uint256",
                    "name": "depositCvxMaxAmount",
                    "type": "uint256"
                },
                {
                    "internalType": "uint256",
                    "name": "options",
                    "type": "uint256"
                }
            ],
            "name": "claimRewards",
            "outputs": [],
            "stateMutability": "nonpayable",
            "type": "function"
        },
        {
            "inputs": [],
            "name": "crv",
            "outputs": [
                {
                    "internalType": "address",
                    "name": "",
                    "type": "address"
                }
            ],
            "stateMutability": "view",
            "type": "function"
        },
        {
            "inputs": [],
            "name": "crvDepositWrapper",
            "outputs": [
                {
                    "internalType": "address",
                    "name": "",
                    "type": "address"
                }
            ],
            "stateMutability": "view",
            "type": "function"
        },
        {
            "inputs": [],
            "name": "cvx",
            "outputs": [
                {
                    "internalType": "address",
                    "name": "",
                    "type": "address"
                }
            ],
            "stateMutability": "view",
            "type": "function"
        },
        {
            "inputs": [],
            "name": "cvxCrv",
            "outputs": [
                {
                    "internalType": "address",
                    "name": "",
                    "type": "address"
                }
            ],
            "stateMutability": "view",
            "type": "function"
        },
        {
            "inputs": [],
            "name": "cvxCrvRewards",
            "outputs": [
                {
                    "internalType": "address",
                    "name": "",
                    "type": "address"
                }
            ],
            "stateMutability": "view",
            "type": "function"
        },
        {
            "inputs": [],
            "name": "getName",
            "outputs": [
                {
                    "internalType": "string",
                    "name": "",
                    "type": "string"
                }
            ],
            "stateMutability": "pure",
            "type": "function"
        },
        {
            "inputs": [],
            "name": "locker",
            "outputs": [
                {
                    "internalType": "address",
                    "name": "",
                    "type": "address"
                }
            ],
            "stateMutability": "view",
            "type": "function"
        },
        {
            "inputs": [],
            "name": "owner",
            "outputs": [
                {
                    "internalType": "address",
                    "name": "",
                    "type": "address"
                }
            ],
            "stateMutability": "view",
            "type": "function"
        },
        {
            "inputs": [],
            "name": "setApprovals",
            "outputs": [],
            "stateMutability": "nonpayable",
            "type": "function"
        }
    ],
    "bytecode": "0x6101606040523480156200001257600080fd5b506040516200167638038062001676833981016040819052620000359162000087565b6001600160a01b0395861660805293851660a05291841660c052831660e0528216610100521661012052336101405262000108565b80516001600160a01b03811681146200008257600080fd5b919050565b60008060008060008060c08789031215620000a157600080fd5b620000ac876200006a565b9550620000bc602088016200006a565b9450620000cc604088016200006a565b9350620000dc606088016200006a565b9250620000ec608088016200006a565b9150620000fc60a088016200006a565b90509295509295509295565b60805160a05160c05160e0516101005161012051610140516114646200021260003960008181610180015261025c01526000818161021c01528181610453015281816104a801528181610a7c0152610e840152600081816101ce015281816103a8015281816103fd01528181610a0c0152610d4b0152600081816101f5015281816102fd015281816103520152610c4601526000818161014f01528181610386015281816103db0152610cb80152600081816101a70152818161043101528181610486015281816105ce01528181610df00152610e40015260008181610110015281816102db015281816103300152818161053801528181610b4f0152610be201526114646000f3fe608060405234801561001057600080fd5b50600436106100be5760003560e01c8063923c1d6111610076578063b9f6c2921161005b578063b9f6c292146101f0578063d7b96d4e14610217578063fc917f8b1461023e57600080fd5b8063923c1d61146101a2578063a7404b70146101c957600080fd5b806382480df9116100a757806382480df91461014a5780638757b15b146101715780638da5cb5b1461017b57600080fd5b806317d7de7c146100c35780636a4874a11461010b575b600080fd5b604080518082018252600d81527f436c61696d5a61702056322e30000000000000000000000000000000000000006020820152905161010291906111fa565b60405180910390f35b6101327f000000000000000000000000000000000000000000000000000000000000000081565b6040516001600160a01b039091168152602001610102565b6101327f000000000000000000000000000000000000000000000000000000000000000081565b610179610251565b005b6101327f000000000000000000000000000000000000000000000000000000000000000081565b6101327f000000000000000000000000000000000000000000000000000000000000000081565b6101327f000000000000000000000000000000000000000000000000000000000000000081565b6101327f000000000000000000000000000000000000000000000000000000000000000081565b6101327f000000000000000000000000000000000000000000000000000000000000000081565b61017961024c366004611279565b6104d1565b336001600160a01b037f000000000000000000000000000000000000000000000000000000000000000016146102ce5760405162461bcd60e51b815260206004820152600560248201527f216175746800000000000000000000000000000000000000000000000000000060448201526064015b60405180910390fd5b6103236001600160a01b037f0000000000000000000000000000000000000000000000000000000000000000167f0000000000000000000000000000000000000000000000000000000000000000600061087e565b6103796001600160a01b037f0000000000000000000000000000000000000000000000000000000000000000167f000000000000000000000000000000000000000000000000000000000000000060001961087e565b6103ce6001600160a01b037f0000000000000000000000000000000000000000000000000000000000000000167f0000000000000000000000000000000000000000000000000000000000000000600061087e565b6104246001600160a01b037f0000000000000000000000000000000000000000000000000000000000000000167f000000000000000000000000000000000000000000000000000000000000000060001961087e565b6104796001600160a01b037f0000000000000000000000000000000000000000000000000000000000000000167f0000000000000000000000000000000000000000000000000000000000000000600061087e565b6104cf6001600160a01b037f0000000000000000000000000000000000000000000000000000000000000000167f000000000000000000000000000000000000000000000000000000000000000060001961087e565b565b8685146105205760405162461bcd60e51b815260206004820152600760248201527f217061726974790000000000000000000000000000000000000000000000000060448201526064016102c5565b6040516370a0823160e01b81523360048201526000907f00000000000000000000000000000000000000000000000000000000000000006001600160a01b0316906370a0823190602401602060405180830381865afa158015610587573d6000803e3d6000fd5b505050506040513d601f19601f820116820180604052508101906105ab9190611379565b6040516370a0823160e01b81523360048201529091506000906001600160a01b037f000000000000000000000000000000000000000000000000000000000000000016906370a0823190602401602060405180830381865afa158015610615573d6000803e3d6000fd5b505050506040513d601f19601f820116820180604052508101906106399190611379565b905060005b8d8110156106e2578e8e8281811061065857610658611392565b905060200201602081019061066d91906113a8565b604051637050ccd960e01b8152336004820152600160248201526001600160a01b039190911690637050ccd990604401600060405180830381600087803b1580156106b757600080fd5b505af11580156106cb573d6000803e3d6000fd5b5050505080806106da906113e7565b91505061063e565b5060005b8b811015610783578c8c8281811061070057610700611392565b905060200201602081019061071591906113a8565b604051630c00007b60e41b81523360048201526001600160a01b03919091169063c00007b090602401600060405180830381600087803b15801561075857600080fd5b505af115801561076c573d6000803e3d6000fd5b50505050808061077b906113e7565b9150506106e6565b5060005b8981101561085f578a8a828181106107a1576107a1611392565b90506020020160208101906107b691906113a8565b6001600160a01b0316636b091695338b8b858181106107d7576107d7611392565b90506020020160208101906107ec91906113a8565b6040516001600160e01b031960e085901b1681526001600160a01b03928316600482015291166024820152604401600060405180830381600087803b15801561083457600080fd5b505af1158015610848573d6000803e3d6000fd5b505050508080610857906113e7565b915050610787565b5061086e8686868585886109e7565b5050505050505050505050505050565b8015806108f85750604051636eb1769f60e11b81523060048201526001600160a01b03838116602483015284169063dd62ed3e90604401602060405180830381865afa1580156108d2573d6000803e3d6000fd5b505050506040513d601f19601f820116820180604052508101906108f69190611379565b155b61096a5760405162461bcd60e51b815260206004820152603660248201527f5361666545524332303a20617070726f76652066726f6d206e6f6e2d7a65726f60448201527f20746f206e6f6e2d7a65726f20616c6c6f77616e63650000000000000000000060648201526084016102c5565b6040516001600160a01b0383166024820152604481018290526109e290849063095ea7b360e01b906064015b60408051601f198184030181529190526020810180517bffffffffffffffffffffffffffffffffffffffffffffffffffffffff166001600160e01b031990931692909217909152610ef3565b505050565b6001811615610a7157604051637050ccd960e01b8152336004820152600160248201527f00000000000000000000000000000000000000000000000000000000000000006001600160a01b031690637050ccd990604401600060405180830381600087803b158015610a5857600080fd5b505af1158015610a6c573d6000803e3d6000fd5b505050505b6002811615610b11577f00000000000000000000000000000000000000000000000000000000000000006001600160a01b0316637050ccd9336004841615156040516001600160e01b031960e085901b1681526001600160a01b03909216600483015215156024820152604401600060405180830381600087803b158015610af857600080fd5b505af1158015610b0c573d6000803e3d6000fd5b505050505b6010811615610b235760009250600091505b8515610db3576040516370a0823160e01b8152336004820152600090610bc19085906001600160a01b037f000000000000000000000000000000000000000000000000000000000000000016906370a08231906024015b602060405180830381865afa158015610b97573d6000803e3d6000fd5b505050506040513d601f19601f82011682018060405250810190610bbb9190611379565b90610fd8565b9050610bcd8188610feb565b90508015610db157610c0a6001600160a01b037f000000000000000000000000000000000000000000000000000000000000000016333084611001565b604080516314b47b0b60e11b81526004810183905260248101889052600884161515604482015260006064820181905291516001600160a01b037f00000000000000000000000000000000000000000000000000000000000000001692632968f616926084808201939182900301818387803b158015610c8957600080fd5b505af1158015610c9d573d6000803e3d6000fd5b50506040516370a0823160e01b8152306004820152600092507f00000000000000000000000000000000000000000000000000000000000000006001600160a01b031691506370a0823190602401602060405180830381865afa158015610d08573d6000803e3d6000fd5b505050506040513d601f19601f82011682018060405250810190610d2c9190611379565b6040516305dc812160e31b8152336004820152602481018290529091507f00000000000000000000000000000000000000000000000000000000000000006001600160a01b031690632ee4090890604401600060405180830381600087803b158015610d9757600080fd5b505af1158015610dab573d6000803e3d6000fd5b50505050505b505b600084118015610dc557506020811615155b15610eeb576040516370a0823160e01b8152336004820152600090610e1f9084906001600160a01b037f000000000000000000000000000000000000000000000000000000000000000016906370a0823190602401610b7a565b9050610e2b8186610feb565b90508015610ee957610e686001600160a01b037f000000000000000000000000000000000000000000000000000000000000000016333084611001565b60405163282d3fdf60e01b8152336004820152602481018290527f00000000000000000000000000000000000000000000000000000000000000006001600160a01b03169063282d3fdf90604401600060405180830381600087803b158015610ed057600080fd5b505af1158015610ee4573d6000803e3d6000fd5b505050505b505b505050505050565b6000610f48826040518060400160405280602081526020017f5361666545524332303a206c6f772d6c6576656c2063616c6c206661696c6564815250856001600160a01b031661103f9092919063ffffffff16565b8051909150156109e25780806020019051810190610f669190611402565b6109e25760405162461bcd60e51b815260206004820152602a60248201527f5361666545524332303a204552433230206f7065726174696f6e20646964206e60448201527f6f7420737563636565640000000000000000000000000000000000000000000060648201526084016102c5565b6000610fe48284611424565b9392505050565b6000818310610ffa5781610fe4565b5090919050565b6040516001600160a01b03808516602483015283166044820152606481018290526110399085906323b872dd60e01b90608401610996565b50505050565b606061104e8484600085611056565b949350505050565b6060824710156110ce5760405162461bcd60e51b815260206004820152602660248201527f416464726573733a20696e73756666696369656e742062616c616e636520666f60448201527f722063616c6c000000000000000000000000000000000000000000000000000060648201526084016102c5565b843b61111c5760405162461bcd60e51b815260206004820152601d60248201527f416464726573733a2063616c6c20746f206e6f6e2d636f6e747261637400000060448201526064016102c5565b600080866001600160a01b03168587604051611138919061143b565b60006040518083038185875af1925050503d8060008114611175576040519150601f19603f3d011682016040523d82523d6000602084013e61117a565b606091505b509150915061118a828286611195565b979650505050505050565b606083156111a4575081610fe4565b8251156111b45782518084602001fd5b8160405162461bcd60e51b81526004016102c591906111fa565b60005b838110156111e95781810151838201526020016111d1565b838111156110395750506000910152565b60208152600082518060208401526112198160408501602087016111ce565b601f01601f19169190910160400192915050565b60008083601f84011261123f57600080fd5b50813567ffffffffffffffff81111561125757600080fd5b6020830191508360208260051b850101111561127257600080fd5b9250929050565b6000806000806000806000806000806000806101008d8f03121561129c57600080fd5b67ffffffffffffffff8d3511156112b257600080fd5b6112bf8e8e358f0161122d565b909c509a5067ffffffffffffffff60208e013511156112dd57600080fd5b6112ed8e60208f01358f0161122d565b909a50985067ffffffffffffffff60408e0135111561130b57600080fd5b61131b8e60408f01358f0161122d565b909850965067ffffffffffffffff60608e0135111561133957600080fd5b6113498e60608f01358f0161122d565b9c9f9b9e50999c989b979a96999860808101359760a0820135975060c0820135965060e090910135945092505050565b60006020828403121561138b57600080fd5b5051919050565b634e487b7160e01b600052603260045260246000fd5b6000602082840312156113ba57600080fd5b81356001600160a01b0381168114610fe457600080fd5b634e487b7160e01b600052601160045260246000fd5b60006000198214156113fb576113fb6113d1565b5060010190565b60006020828403121561141457600080fd5b81518015158114610fe457600080fd5b600082821015611436576114366113d1565b500390565b6000825161144d8184602087016111ce565b919091019291505056fea164736f6c634300080b000a",
    "linkReferences": {},
    "deployedLinkReferences": {}
}